:100000000C9472000C9494000C9494000C94940042
:100010000C9494000C9494000C9494000C94940010
:100020000C9494000C9494000C9494000C94940000
:100030000C9494000C9494000C9494000C949400F0
:100040000C9494000C9494000C9494000C949400E0
:100050000C9494000C9494000C9494000C949400D0
:100060000C9494000C9494000C9494000C949400C0
:100070000C9494000C9494000C9494000C949400B0
:100080000C9494000C9494000C9494000C949400A0
:100090000C9494000C9494000C9494000C94940090
:1000A0000C9494000C9494000C9494000C94940080
:1000B0000C9494000C9494000C9494000C94940070
:1000C0000C9494000C9494000C9494000C94940060
:1000D0000C9494000C9494000C9494000C94940050
:1000E0000C94940011241FBECFEFD1E2DEBFCDBF30
:1000F00000E00CBF12E0A0E0B2E0E2E0F7E000E0D8
:100100000BBF02C007900D92A030B107D9F71BBEFC
:1001100012E0A0E0B2E001C01D92A630B107E1F705
:100120000E943D010C947F030C9400008FEF87B96F
:1001300018B82AE02A95F1F700C088B98AE18A95B3
:10014000F1F700C018B817B8309BFECF309B0AC03B
:1001500080E090E025E02A95F1F7000001963099C3
:10016000F9CF02C080E090E06DE170E00E940503ED
:10017000862F972F08950E94A4010E94FD018FEF02
:1001800091EEA4E081509040A040E1F700C0000053
:100190000E94960090930102809300028FEF91EEEF
:1001A000A4E081509040A040E1F700C000000E9410
:1001B0004D028FEF91EEA4E081509040A040E1F716
:1001C00000C000000E9496009093030280930202F8
:1001D0008FEF91EEA4E081509040A040E1F700C085
:1001E00000000E94EE0120910002309101028091F6
:1001F000020290910302281739079CF480910202B1
:10020000909103028333910564F00E9480018FEF87
:1002100097EAA1E681509040A040E1F700C00000BD
:1002200020C080910002909101028333910564F017
:100230000E9487018FEF97EAA1E681509040A0408D
:10024000E1F700C000000DC00E9499018FEF97EA0E
:10025000A1E681509040A040E1F700C000000E945C
:10026000BB000E94A4018FEF91EEA4E0815090406A
:10027000A040E1F700C0000008958FEF87B984B96E
:100280000E94710160E875E280E090E048E02EE4B1
:1002900000E00E945C028FEF97EAA1E68150904057
:1002A000A040E1F700C000000E948E018FEF91EEA8
:1002B000A4E081509040A040E1F700C000000E94FF
:1002C000960090930502809304028091040290911D
:1002D00005028233910554F70E94BB000E948E01F3
:1002E000E5CF109289001092880010928B00109236
:1002F0008A0081EF8093800083E0809381000895DD
:100300008AE090E090938B0080938A0008958AE0C1
:1003100090E0909389008093880008958AE090E0AF
:10032000909389008093880090938B0080938A003B
:10033000089588EC90E090938900809388009093D2
:100340008B0080938A000895109289001092880093
:1003500010928B0010928A00089581E082B98FED8F
:100360009EE20197F1F700C0000083E082B98FEDB3
:100370009EE20197F1F700C0000082E082B98FEDA4
:100380009EE20197F1F700C0000086E082B98FED90
:100390009EE20197F1F700C0000084E082B98FED82
:1003A0009EE20197F1F700C000008CE082B98FED6A
:1003B0009EE20197F1F700C0000088E082B98FED5E
:1003C0009EE20197F1F700C0000089E082B98FED4D
:1003D0009EE20197F1F700C000000895CF93DF93EC
:1003E0008FEF81B981E082B9CFE3D0E00E94AD0107
:1003F0002197E1F7DF91CF910895CF93DF938FEFAE
:1004000081B981E082B9CFE3D0E00E94AD012197AC
:10041000E1F7DF91CF91089589E082B98FED9EE2F7
:100420000197F1F700C0000088E082B98FED9EE2ED
:100430000197F1F700C000008CE082B98FED9EE2D9
:100440000197F1F700C0000084E082B98FED9EE2D1
:100450000197F1F700C0000086E082B98FED9EE2BF
:100460000197F1F700C0000082E082B98FED9EE2B3
:100470000197F1F700C0000083E082B98FED9EE2A2
:100480000197F1F700C0000081E082B98FED9EE294
:100490000197F1F700C000000895CF93DF938FEF2D
:1004A00081B981E082B9CFE7D0E00E940C022197A8
:1004B000E1F7DF91CF910895CF92DF92EF92FF9213
:1004C0000F93DC01CB010F2EF2E9CF2EFFEFDF2ED1
:1004D000FFEFEF2EFFEFFF2EF02DC80ED91EEA1E04
:1004E000FB1E33E9C31631ECD30631E0E30630E0FE
:1004F000F30608F043C0453008F440C04930F0F539
:1005000030E23093C00038E13093C100002329F07D
:10051000E1ECF0E03081306830834550440F409387
:10052000C200253431F4E2ECF0E020812062208327
:1005300007C02F3429F4E2ECF0E02081206320830F
:10054000880F991FAA1FBB1F880F991FAA1FBB1FC7
:100550009C01AD01220F331F441F551F220F331F73
:10056000441F551F60E074E284EF90E00E9418037E
:10057000215030403093C5002093C4000F91FF906C
:10058000EF90DF90CF9008958091C000807808951B
:10059000E0ECF0E080818823ECF78091C6000895BC
:1005A000E0ECF0E0908195FFFDCF8093C6000895C8
:1005B000CF93DF93EC018881882331F021960E944C
:1005C000D00289918823D9F7DF91CF910895CF93F5
:1005D000DF93CDB7DEB727970FB6F894DEBF0FBE17
:1005E000CDBFBE016F5F7F4F4AE050E00E944E03D7
:1005F000CE0101960E94D80227960FB6F894DEBF6E
:100600000FBECDBFDF91CF91089597FB092E07262E
:100610000AD077FD04D02ED006D000201AF47095B1
:1006200061957F4F0895F6F7909581959F4F0895B6
:10063000A1E21A2EAA1BBB1BFD010DC0AA1FBB1FE6
:10064000EE1FFF1FA217B307E407F50720F0A21B58
:10065000B30BE40BF50B661F771F881F991F1A94C5
:1006600069F760957095809590959B01AC01BD01EF
:10067000CF010895AA1BBB1B51E107C0AA1FBB1FD6
:10068000A617B70710F0A61BB70B881F991F5A951E
:10069000A9F780959095BC01CD010895FB019F01BC
:1006A000E8944230C4F04532B4F44A3029F497FB60
:1006B0001EF4909581959F4F642F77270E943A03EF
:1006C000805D8A330CF0895D8193CB010097A1F79F
:1006D00016F45DE251931082C9010C946F03DC01A2
:1006E000FC01672F71917723E1F7329704C07C9169
:1006F0006D9370836291AE17BF07C8F30895F894A5
:02070000FFCF29
:00000001FF
